{
  "contractName": "TransactionContract",
  "abi": [
    {
      "anonymous": false,
      "inputs": [
        {
          "indexed": true,
          "internalType": "address",
          "name": "sender",
          "type": "address"
        },
        {
          "indexed": true,
          "internalType": "address",
          "name": "receiver",
          "type": "address"
        },
        {
          "indexed": false,
          "internalType": "uint256",
          "name": "amount",
          "type": "uint256"
        },
        {
          "indexed": false,
          "internalType": "uint256",
          "name": "timestamp",
          "type": "uint256"
        },
        {
          "indexed": false,
          "internalType": "bytes32",
          "name": "blockHash",
          "type": "bytes32"
        }
      ],
      "name": "TransactionCreated",
      "type": "event"
    },
    {
      "inputs": [
        {
          "internalType": "uint256",
          "name": "",
          "type": "uint256"
        }
      ],
      "name": "transactions",
      "outputs": [
        {
          "internalType": "address",
          "name": "sender",
          "type": "address"
        },
        {
          "internalType": "address",
          "name": "receiver",
          "type": "address"
        },
        {
          "internalType": "uint256",
          "name": "amount",
          "type": "uint256"
        },
        {
          "internalType": "uint256",
          "name": "timestamp",
          "type": "uint256"
        },
        {
          "internalType": "bytes32",
          "name": "blockHash",
          "type": "bytes32"
        }
      ],
      "stateMutability": "view",
      "type": "function"
    },
    {
      "inputs": [
        {
          "internalType": "address",
          "name": "receiver",
          "type": "address"
        },
        {
          "internalType": "uint256",
          "name": "amount",
          "type": "uint256"
        }
      ],
      "name": "createTransaction",
      "outputs": [],
      "stateMutability": "nonpayable",
      "type": "function"
    },
    {
      "inputs": [],
      "name": "getTransactions",
      "outputs": [
        {
          "components": [
            {
              "internalType": "address",
              "name": "sender",
              "type": "address"
            },
            {
              "internalType": "address",
              "name": "receiver",
              "type": "address"
            },
            {
              "internalType": "uint256",
              "name": "amount",
              "type": "uint256"
            },
            {
              "internalType": "uint256",
              "name": "timestamp",
              "type": "uint256"
            },
            {
              "internalType": "bytes32",
              "name": "blockHash",
              "type": "bytes32"
            }
          ],
          "internalType": "struct TransactionContract.Transaction[]",
          "name": "",
          "type": "tuple[]"
        }
      ],
      "stateMutability": "view",
      "type": "function"
    }
  ],
  "bytecode": "0x608060405234801561001057600080fd5b506107c8806100206000396000f3fe608060405234801561001057600080fd5b50600436106100415760003560e01c80631e7f8f0f1461004657806383920e90146100625780639ace38c214610080575b600080fd5b610060600480360381019061005b9190610439565b6100b4565b005b61006a610260565b6040516100779190610629565b60405180910390f35b61009a60048036038101906100959190610475565b610389565b6040516100ab9594939291906105d6565b60405180910390f35b60006001436100c391906106bb565b40905060006040518060a001604052803373ffffffffffffffffffffffffffffffffffffffff1681526020018573ffffffffffffffffffffffffffffffffffffffff16815260200184815260200142815260200183815250908060018154018082558091505060019003906000526020600020906005020160009091909190915060008201518160000160006101000a81548173ffffffffffffffffffffffffffffffffffffffff021916908373ffffffffffffffffffffffffffffffffffffffff16021790555060208201518160010160006101000a81548173ffffffffffffffffffffffffffffffffffffffff021916908373ffffffffffffffffffffffffffffffffffffffff16021790555060408201518160020155606082015181600301556080820151816004015550508273ffffffffffffffffffffffffffffffffffffffff163373ffffffffffffffffffffffffffffffffffffffff167f8eaa9b62cab95a5446008f0036ca165daa9d1bb2f488b517dc150fd10db7e7758442856040516102539392919061064b565b60405180910390a3505050565b60606000805480602002602001604051908101604052809291908181526020016000905b8282101561038057838290600052602060002090600502016040518060a00160405290816000820160009054906101000a900473ffffffffffffffffffffffffffffffffffffffff1673ffffffffffffffffffffffffffffffffffffffff1673ffffffffffffffffffffffffffffffffffffffff1681526020016001820160009054906101000a900473ffffffffffffffffffffffffffffffffffffffff1673ffffffffffffffffffffffffffffffffffffffff1673ffffffffffffffffffffffffffffffffffffffff168152602001600282015481526020016003820154815260200160048201548152505081526020019060010190610284565b50505050905090565b6000818154811061039957600080fd5b90600052602060002090600502016000915090508060000160009054906101000a900473ffffffffffffffffffffffffffffffffffffffff16908060010160009054906101000a900473ffffffffffffffffffffffffffffffffffffffff16908060020154908060030154908060040154905085565b60008135905061041e81610764565b92915050565b6000813590506104338161077b565b92915050565b6000806040838503121561044c57600080fd5b600061045a8582860161040f565b925050602061046b85828601610424565b9150509250929050565b60006020828403121561048757600080fd5b600061049584828501610424565b91505092915050565b60006104aa8383610550565b60a08301905092915050565b6104bf816106ef565b82525050565b6104ce816106ef565b82525050565b60006104df82610692565b6104e981856106aa565b93506104f483610682565b8060005b8381101561052557815161050c888261049e565b97506105178361069d565b9250506001810190506104f8565b5085935050505092915050565b61053b81610701565b82525050565b61054a81610701565b82525050565b60a08201600082015161056660008501826104b6565b50602082015161057960208501826104b6565b50604082015161058c60408501826105b8565b50606082015161059f60608501826105b8565b5060808201516105b26080850182610532565b50505050565b6105c18161072b565b82525050565b6105d08161072b565b82525050565b600060a0820190506105eb60008301886104c5565b6105f860208301876104c5565b61060560408301866105c7565b61061260608301856105c7565b61061f6080830184610541565b9695505050505050565b6000602082019050818103600083015261064381846104d4565b905092915050565b600060608201905061066060008301866105c7565b61066d60208301856105c7565b61067a6040830184610541565b949350505050565b6000819050602082019050919050565b600081519050919050565b6000602082019050919050565b600082825260208201905092915050565b60006106c68261072b565b91506106d18361072b565b9250828210156106e4576106e3610735565b5b828203905092915050565b60006106fa8261070b565b9050919050565b6000819050919050565b600073ffffffffffffffffffffffffffffffffffffffff82169050919050565b6000819050919050565b7f4e487b7100000000000000000000000000000000000000000000000000000000600052601160045260246000fd5b61076d816106ef565b811461077857600080fd5b50565b6107848161072b565b811461078f57600080fd5b5056fea264697066735822122016328d4a37e67e62ad66c0312c3ff51b6c74443fc905f34c4452a3f06fcdd8d264736f6c63430008000033",
  "immutableReferences": {},
  "source": "// SPDX-License-Identifier: MIT\r\npragma solidity ^0.8.0;\r\n\r\ncontract TransactionContract {\r\n    struct Transaction {\r\n        address sender;\r\n        address receiver;\r\n        uint256 amount;\r\n        uint256 timestamp;\r\n        bytes32 blockHash;\r\n    }\r\n\r\n    Transaction[] public transactions;\r\n\r\n    event TransactionCreated(\r\n        address indexed sender,\r\n        address indexed receiver,\r\n        uint256 amount,\r\n        uint256 timestamp,\r\n        bytes32 blockHash\r\n    );\r\n\r\n    function createTransaction(address receiver, uint256 amount) public {\r\n        bytes32 blockHash = blockhash(block.number - 1);\r\n        transactions.push(Transaction(msg.sender, receiver, amount, block.timestamp, blockHash));\r\n        emit TransactionCreated(msg.sender, receiver, amount, block.timestamp, blockHash);\r\n    }\r\n\r\n    function getTransactions() public view returns (Transaction[] memory) {\r\n        return transactions;\r\n    }\r\n}\r\n",
  "sourcePath": "S:\\Git\\TransacApp\\negocio-persistencia\\smartcontract-truffle\\contracts\\Transaction.sol",
  "compiler": {
    "name": "solc",
    "version": "0.8.0+commit.c7dfd78e.Emscripten.clang"
  },
  "schemaVersion": "3.4.16",
  "updatedAt": "2024-12-11T04:16:38.616Z",
  "devdoc": {
    "kind": "dev",
    "methods": {},
    "version": 1
  },
  "userdoc": {
    "kind": "user",
    "methods": {},
    "version": 1
  }
}